:100000000C9462000C948A000C948A000C948A0070
:100010000C948A000C948A000C948A000C948A0038
:100020000C948A000C948A000C948A000C948A0028
:100030000C948A000C948A000C948A000C948A0018
:100040000C94F0060C948A000C94BE060C9498064E
:100050000C948A000C948A000C948A000C948A00F8
:100060000C948A000C948A000000000025002800EF
:100070002B0000000000240027002A0000000000E0
:1000800023002600290004040404040404040202DA
:100090000202020203030303030301020408102007
:1000A0004080010204081020010204081020000012
:1000B0000008000201000003040700000000000027
:1000C00000003A0711241FBECFEFD8E0DEBFCDBF3E
:1000D00011E0A0E0B1E0E4E1F3E102C005900D928F
:1000E000A237B107D9F722E0A2E7B1E001C01D9223
:1000F000AD32B207E1F710E0C2E6D0E004C02197CC
:10010000FE010E948209C136D107C9F70E9471071A
:100110000C9488090C9400008CBD9DBD0895AF928D
:10012000BF92CF92DF92EF92FF920F931F93CF93E4
:10013000DF936C017B018B01040F151FEB015E0146
:10014000AE18BF08C017D10759F06991D601ED91DB
:10015000FC910190F081E02DC6010995892B79F77A
:10016000C501DF91CF911F910F91FF90EF90DF902C
:10017000CF90BF90AF900895FC01538D448D252FF3
:1001800030E0842F90E0821B930B541710F0CF9631
:10019000089501970895FC01918D828D981761F063
:1001A000A28DAE0FBF2FB11D5D968C91928D9F5F7A
:1001B0009F73928F90E008958FEF9FEF0895FC0159
:1001C000918D828D981731F0828DE80FF11D858D0C
:1001D00090E008958FEF9FEF0895FC01918D228D9F
:1001E000892F90E0805C9F4F821B91098F73992724
:1001F000089580E891E00E94ED0021E0892B09F448
:1002000020E0822F089580E090E0892B29F00E9461
:10021000F90081110C9400000895FC01A48DA80F31
:10022000B92FB11DA35ABF4F2C91848D90E0019638
:100230008F739927848FA689B7892C93A089B18958
:100240008C91837080648C93938D848D981306C0F9
:100250000288F389E02D80818F7D80830895EF925D
:10026000FF920F931F93CF93DF93EC0181E0888F70
:100270009B8D8C8D98131AC0E889F989808185FF40
:1002800015C09FB7F894EE89FF896083E889F989E2
:1002900080818370806480839FBF81E090E0DF91E4
:1002A000CF911F910F91FF90EF900895F62E0B8D37
:1002B00010E00F5F1F4F0F731127E02E8C8D8E11F2
:1002C0000CC00FB607FCFACFE889F989808185FF59
:1002D000F5CFCE010E940D01F1CFEB8DEC0FFD2F7C
:1002E000F11DE35AFF4FF0829FB7F8940B8FEA8914
:1002F000FB8980818062CFCFCF93DF93EC01888D23
:100300008823B9F0AA89BB89E889F9898C9185FD90
:1003100003C0808186FD0DC00FB607FCF7CF8C911E
:1003200085FFF2CF808185FFEDCFCE010E940D01C8
:10033000E9CFDF91CF910895833081F028F48130A7
:1003400099F08230A9F008958730A9F08830C9F07B
:100350008430B1F4809180008F7D03C08091800053
:100360008F7780938000089584B58F7784BD08953A
:1003700084B58F7DFBCF8091B0008F778093B000E4
:1003800008958091B0008F7DF9CF1F93CF93DF93B5
:10039000282F30E0F901E255FF4F8491F901E6562C
:1003A000FF4FD491F901EA57FF4FC491CC23A9F034
:1003B000162F81110E949C01EC2FF0E0EE0FFF1F21
:1003C000E859FF4FA591B4918FB7F894EC911111B2
:1003D00008C0D095DE23DC938FBFDF91CF911F91B2
:1003E0000895DE2BF8CFCF93DF9390E0FC01E65623
:1003F000FF4F24918A579F4FFC0184918823D1F0AD
:1004000090E0880F991FFC01EE58FF4FA591B49121
:10041000FC01E859FF4FC591D49161110EC09FB7FF
:10042000F8948C91E22FE0958E238C932881E2231F
:10043000E8839FBFDF91CF9108958FB7F894EC9137
:10044000E22BEC938FBFF6CF3FB7F8948091730106
:1004500090917401A0917501B091760126B5A89B89
:1004600005C02F3F19F00196A11DB11D3FBFBA2F46
:10047000A92F982F8827BC01CD01620F711D811D06
:10048000911D42E0660F771F881F991F4A95D1F78B
:1004900008958F929F92AF92BF92CF92DF92EF9288
:1004A000FF920E9424024B015C0182E3C82ED12CF2
:1004B000E12CF12C0E942402681979098A099B0910
:1004C000683E734081059105A8F321E0C21AD10866
:1004D000E108F10888EE880E83E0981EA11CB11C8B
:1004E000C114D104E104F10429F7FF90EF90DF90EB
:1004F000CF90BF90AF909F908F900895BC016E5F9A
:100500007F4FDC01ED91FC910190F081E02D40E006
:10051000099591E0811190E0892F089508958EBD8D
:1005200000000DB407FEFDCF8EB50895DF92EF9267
:10053000FF920F931F93CF93DF937C01062FD42E4E
:10054000152F80E590E00E948C0060E0F701868521
:100550000E94C50182E10E948F02CD2DD12F0C0F88
:100560001D2F111DC017D10721F089910E948F0204
:10057000F9CF61E0F7018685DF91CF911F910F914F
:10058000FF90EF90DF900C94C5011F93CF93DF9302
:10059000EC01162F80E590E00E948C0060E08E85D3
:1005A0000E94C501812F80680E948F0280E00E9416
:1005B0008F02182F61E08E850E94C501812FDF9187
:1005C000CF911F9108950F931F93CF93DF93EC0169
:1005D000062F142F80E590E00E948C0060E08E854D
:1005E0000E94C501802F0E948F02812F0E948F02DE
:1005F00061E08E85DF91CF911F910F910C94C50121
:10060000CF92DF92EF92FF920F931F93CF93DF93DE
:10061000EC016B01F42E890140E062E00E94E302EC
:1006200044E06AE0CE010E94E30240E864E1CE01CA
:100630000E94E302A6016F2DCE010E94960243E0C4
:1006400062E0CE010E94E3028FB7F894C0907C0173
:10065000D0907D01E0907E01F0907F018FBF89E511
:10066000C80ED11CE11CF11C6AE0CE010E94C5023B
:1006700082FF1BC040E062E0CE010E94E30264E41E
:10068000CE010E94C502F801808362E4CE010E947F
:10069000C502F801818380E0DF91CF911F910F9116
:1006A000FF90EF90DF90CF9008952FB7F89480914E
:1006B0007C0190917D01A0917E01B0917F012FBFBF
:1006C0008C159D05AE05BF0578F283E0E5CF2F922E
:1006D0003F924F925F926F927F928F929F92AF92D2
:1006E000CF92DF92EF92FF920F931F93CF93DF93FE
:1006F00000D0CDB7DEB74C012B01D42E390180E0FC
:10070000E114F10411F0F70180813C2C329490EF58
:100710003922380E40E062E0C4010E94E3024FE754
:1007200068E0C4010E94E30240E864E1C4010E9461
:10073000E302A2016D2DC4010E949602432D6AE1DD
:10074000C4010E94E3024CE062E0C4010E94E302A3
:100750006AE1C4010E94C502482F40686AE1C401F1
:100760000E94E3028FB7F89420907C0130907D01C5
:1007700040907E0150907F018FBFF4E22F0E311C1C
:10078000411C511C68E0C4010E94C502982F90735F
:1007900009F0C0C080FF15C083E00F900F90DF917B
:1007A000CF911F910F91FF90EF90DF90CF90AF907E
:1007B0009F908F907F906F905F904F903F902F9081
:1007C00008952FB7F89480917C0190917D01A091BC
:1007D0007E01B0917F012FBF82159305A405B50559
:1007E00088F2DACF6114710409F469C001151105AA
:1007F00009F465C064E1C4010E94C502382EF80105
:100800008081831508F480C030823320E1F180E5D7
:1008100090E00E948C0060E0F40186850E94C50192
:100820003A9482E90E948F02CC20B1F08FEF90E0E1
:100830009C0102C0220F331FCA94E2F7690182E9CA
:100840000E948F029C2D9095F301208192238C2190
:10085000982B9083CC24C39423014C0C511CC314BB
:1008600040F482E90E948F02F20181932F01C39428
:10087000F6CF80E00E948F02F201808361E0F401F4
:1008800086850E94C50168E1C4010E94C502877087
:10089000E114F10411F0F701808323FC37C06114E7
:1008A0007104B1F10115110599F1AA2089F1F8013E
:1008B0004081413031F4843029F58FEF6ECF80E0F4
:1008C000ECCF4230F8F081111DC042509E012F5FE5
:1008D0003F4FB301C4010E94000381115ECFF801B4
:1008E0009081690E711CF30132972081998129133F
:1008F00009C0F1E06F1A7108F30120819A8129176C
:1009000009F44BCF87E049CF84E047CF82E045CF61
:1009100080E043CF6CE0C4010E94C502282E8371A1
:1009200009F460CF81E039CF8F929F92AF92CF923E
:10093000EF92FF920F931F93CF93DF9300D000D0DD
:100940001F92CDB7DEB74C0182E08D8340E064E2B8
:10095000C4010E94E30240E066E2C4010E94E30297
:1009600046E268E4C4010E94E30286E28B838D8143
:100970008230D8F16CE1C4010E94C502482F4F7744
:100980006CE1C4010E94E30287E08C83A12CC12C9E
:10099000CE0104967C018E010B5F1F4F9E012F5FDD
:1009A0003F4F41E0BE016D5F7F4FC4010E9467036E
:1009B000982F811117C08D818230B9F48C818111FB
:1009C00014C081E00F900F900F900F900F90DF9167
:1009D000CF911F910F91FF90EF90CF90AF909F908C
:1009E0008F90089581E0923069F380E0EBCF2F92F1
:1009F0003F924F925F926F927F928F929F92AF92AF
:100A0000BF92CF92DF92EF92FF920F931F93CF93FB
:100A1000DF93CDB7DEB72D970FB6F894DEBF0FBECC
:100A2000CDBF16E0413508F04AC1342E3B014C01E0
:100A30006CE10E94C502482F4F776CE1C4010E940F
:100A4000E30283E98983332029F081E0F301908177
:100A5000953008F480E022242394B12C9B2D990F2B
:100A6000990F990FD32CD91AD7FCD12C32E08823B7
:100A700019F098E89B8333E021E09D2D977009F4ED
:100A800020E09D2D959595959595290FC9F094E0B9
:100A9000811193E0291708F4922FEB2DF0E03196A5
:100AA000E60DF71D232F4191A1E0B0E0AC0FBD1F73
:100AB000A20FB11D4C932F5F422F431B491798F390
:100AC000882311F0F8E0DF0E8FE18D150CF082C065
:100AD00090E79A838B819C8189279D8189279E81BC
:100AE00089278F839E01285F3F4F47E0BE016F5FDC
:100AF0007F4FC4010E940003182F8111E0C01A86A5
:100B0000E3E0EB87DC86CE0107962C0199E09D8718
:100B1000CA844C2D4295407F4C0D6AE1C4010E946D
:100B2000E302A12CCE010A967C018E01055F1F4FC6
:100B300092014D85BE016F5F7F4FC4010E94670324
:100B4000182F823009F065C06CE1C4010E94C50213
:100B500085FDB5C08F7109F480E2282F30E04D2D5E
:100B6000DD0C550B421753070CF09DC0D82EE82F13
:100B7000E595E595E595EF5F982F977081E009F48D
:100B800080E0E80F81E090E08C0F9D1F8E0F911D9B
:100B9000FC01215031092770332781E090E002C029
:100BA000880F991F2A95E2F79C018081822B808310
:100BB0008BCF85E98983332031F081E0F301908187
:100BC000983008F04BCF80E049CF87E9898326E051
:100BD000B22EF9CF9D2D97709A878D2D859585958D
:100BE00085958E5F282F2295207F290F2A8321E06B
:100BF000911101C020E0280F2D8744244394512CEB
:100C00004C0E5D1E480E511CE9E0E81BEB87DC86AC
:100C10007FCF811154C080E2D82E9C8590320CF495
:100C200057CF8B81883809F040C083E093E0EB2DEB
:100C3000F0E03196E60DF71D980FA1E0B0E0AC0FA3
:100C4000BD1FA80FB11D2C9121938F5F8913F5CF84
:100C5000BB84E3E0BE124DC08A8581114AC09E016B
:100C60002D5F3F4F41E0B201C4010E940003182FE5
:100C7000811125C09B81F201818198133CC09C8128
:100C80008281981338C0808182FF12C02394F2E0E1
:100C90002F1609F48ECF83E0281609F496CF91E041
:100CA000291609F4CECE15E00AC082E094E0BFCF49
:100CB000F3018387822D880F820D8F5F8083812FC0
:100CC0002D960FB6F894DEBF0FBECDBFDF91CF914A
:100CD0001F910F91FF90EF90DF90CF90BF90AF905A
:100CE0009F908F907F906F905F904F903F902F904C
:100CF000089511E0E4CF17E0E2CFFC01019000205D
:100D0000E9F73197AF01481B590BBC0180E891E02E
:100D10000C948F00CF93DF930E947D06EC0184E258
:100D200091E00E947D068C0F9D1FDF91CF91089569
:100D30001F920F920FB60F9211242F933F934F9350
:100D40005F936F937F938F939F93AF93BF93EF9333
:100D5000FF9380E891E00E940D01FF91EF91BF9118
:100D6000AF919F918F917F916F915F914F913F9143
:100D70002F910F900FBE0F901F9018951F920F92FA
:100D80000FB60F9211242F938F939F93EF93FF939E
:100D9000E0919001F09191018081E0919601F091B4
:100DA000970182FD1BC09081809199018F5F8F73A5
:100DB00020919A01821741F0E0919901F0E0E0580A
:100DC000FE4F958F80939901FF91EF919F918F91A5
:100DD0002F910F900FBE0F901F9018958081F4CF28
:100DE0001F920F920FB60F9211242F933F938F9360
:100DF0009F93AF93BF9380917C0190917D01A091CF
:100E00007E01B0917F013091720123E0230F2D37D5
:100E100058F50196A11DB11D2093720180937C01AC
:100E200090937D01A0937E01B0937F018091730127
:100E300090917401A0917501B09176010196A11D68
:100E4000B11D8093730190937401A0937501B093C9
:100E50007601BF91AF919F918F913F912F910F900C
:100E60000FBE0F901F90189526E8230F0296A11D24
:100E7000B11DD2CFE0E8F1E01382128288EE93E058
:100E8000A0E0B0E084839583A683B7838CE091E0F3
:100E90009183808385EC90E09587848784EC90E053
:100EA0009787868780EC90E0918B808B81EC90E037
:100EB000938B828B82EC90E0958B848B86EC90E018
:100EC000978B868B118E128E138E148EEDE1F2E0CD
:100ED0008EE191E0918380838AE0868789E087872D
:100EE0000895CF93DF93CDB7DEB7A1970FB6F894EF
:100EF000DEBF0FBECDBF789484B5826084BD84B55B
:100F0000816084BD85B5826085BD85B5816085BD04
:100F100080916E00816080936E00109281008091BC
:100F20008100826080938100809181008160809344
:100F30008100809180008160809380008091B10069
:100F400084608093B1008091B00081608093B00094
:100F500080917A00846080937A0080917A00826028
:100F600080937A0080917A00816080937A008091EA
:100F70007A00806880937A001092C100E09190011D
:100F8000F091910182E08083E0918C01F0918D01DC
:100F90001082E0918E01F0918F018FEC808310928E
:100FA0009801E0919401F091950186E08083E091B1
:100FB0009201F0919301808180618083E0919201A0
:100FC000F0919301808188608083E0919201F0919B
:100FD0009301808180688083E0919201F091930178
:100FE00080818F7D80831FB7F89480917701811174
:100FF00027C0E0E9F0E08491E4EAF0E09491E82F82
:10100000F0E0EE0FFF1FEE58FF4FA591B491EC9169
:10101000E92321F461E08AE00E94C50161E08AE0F1
:101020000E94F3018CB580618CBD8CB580648CBD51
:1010300061E08DE00E94F30161E08BE00E94F3012A
:10104000809177018F5F809377011FBF61E080916E
:101050002B020E94F30161E080912B020E94C501E6
:1010600080912C028F3F09F4DDC060E00E94F30103
:1010700020912C0230E0F901E255FF4F8491F901F3
:10108000E656FF4F0491F901EA57FF4F14911111F1
:10109000BAC061E080912C020E94F30160E080916F
:1010A0002C020E94C50183E090E00197F1F761E016
:1010B00080912C020E94C5010E94490240E064E236
:1010C0008DE192E00E94E30240E066E28DE192E071
:1010D0000E94E30246E268E48DE192E00E94E302AE
:1010E00040E864E58DE192E00E94E30249EA66E5AA
:1010F0008DE192E00E94E30243E068E58DE192E039
:101100000E94E30248EE6AE58DE192E00E94E3026C
:1011100040E46AE28DE192E00E94E3024DE362E284
:101120008DE192E00E94E30268E28DE192E00E948C
:10113000C502982F9370933039F0482F436068E2CE
:101140008DE192E00E94E30287E291E00E948A062C
:1011500020E0822E20E0922E30E5D32E8DE192E029
:101160000E949404882309F4BBC08DE192E00E94A0
:101170007E02882309F4B4C08DE291E00E947D06CE
:10118000C12C80911F02C81608F064C00C2D10E01D
:10119000C801835E9D4F7C01DC0113968C918031E8
:1011A00008F053C082E391E00E947D06F70143817D
:1011B00050E070E060E019A2FE01B196DB01CA01C7
:1011C0008F709927AA27BB2794E076956795579546
:1011D00047959A95D1F78A300CF03AC0805D82939A
:1011E000411551056105710549F7309719F0CF0197
:1011F0000E947D06F801E858FE4FD70113968C91A6
:101200008083C394BECF81110E949C01E12FF0E046
:10121000EE0FFF1FE458FF4FA591B491EC910E2300
:1012200009F437CF4FE062E08DE192E00E94E302E3
:1012300013E00E94490262E08DE192E00E94C50243
:1012400084FF3CCF1150A9F739CF85E391E0ACCFB3
:10125000895CC5CF87E391E00E947D0690911F02D3
:1012600068E771E024E031E0DB0180E09817A9F045
:101270005D91F90141919F01541769F0A0E0B1E03F
:1012800080E09817E1F1FB013191BF012D913213FC
:1012900033C08F5FF6CF8F5FE9CF89E391E00E9483
:1012A0008A06D9821A829E012D5F3F4F42E0BE011D
:1012B0006F5F7F4F8DE192E00E940003811110C0AB
:1012C000A12CC12CF12CE12C10E000E030E020E05A
:1012D00044E0BE016F5F7F4F8DE192E00E946703A3
:1012E0008114910409F43ACF0E94F900882309F48B
:1012F00035CF0E94000032CF8EE491E0D0CF8CE554
:1013000091E0CDCFEE0FFF1F0590F491E02D0994F1
:04131000F894FFCF7F
:10131400B94F9898A92AA799000000002F018F00BF
:10132400BC007C01ED00CB00DF0000000000F704EE
:1013340094047E020D0A004C6973746F005549448D
:101344003A00203000200009004269656E76656E1F
:1013540069646F205573756172696F2031004E6F37
:1013640020746520636F6E6F7A636F004269656EE7
:1013740076656E69646F205573756172696F20328A
:02138400000067
:00000001FF
